:020000040000FA
:100000000313831660308F040F309F008F308500FC
:10001000860187010C30880089018312B001B1018B
:100020000230A400FF30AB00AC00A700A800A00085
:10003000A1000F30AA00B201B40188018501F0309F
:10004000A6007430AE003215321634152230880402
:1000500033308804F030A000A100A200FF30B000CF
:10006000B100A800A700AD01E2308805FF30AC0068
:10007000AB00AF00C03088052230081DA710881DD6
:10008000AF1088040F30A300FF30A900C0308805EE
:100090002230081DA810881DAC108804A821C0308B
:1000A00088052230081DA713881DAF138804A821D6
:1000B000C03088052230081D2710881D2F108804A5
:1000C000A821C03088052230081DA913881DAC1353
:1000D0008804A821C03088052230081D2913881DF6
:1000E0002C138804A821C03088052230081DA912CD
:1000F000881DAC128804000000000000B211C0305E
:1001000088052230081D2912881D2C128804290810
:100110002A06031DB215E0308805223000000000D9
:10012000881DAF1188042908A805B21D3216E030D9
:100130008805223000000000881D2C118804000072
:100140000000B21D0813E0308805223000000000D6
:10015000881D2B128804003085000508A004E030BB
:1001600088052230881D2C10F220880423082406DC
:100170000319BE28311709103415C8283419562917
:10018000211C7129341888292008B0052108B105DF
:100190002D08013EAD002D1AD12889108813321583
:1001A000DD2832195029AF1F21292C08B0052B0852
:1001B000B10532183B292F08B105B21DE928321AC2
:1001C0005A29A71F5E29B21A67292808B0052708EF
:1001D000B105B01E3016301FB01730098600310946
:1001E000870026288804403085000508A204E030F6
:1001F0008805B41B311388192D142230880420304F
:1002000085000508A104E03088052108A5008819AB
:10021000AD1422308804603085000508A305E03065
:100220008805220EA00588192D15223088040000AB
:10023000231C21122310E03088058819AD152230C7
:1002400008002C194529B21C47292C152F082E0609
:10025000031D2D29B1123214DD28B21FD528321802
:100260003B292B1A3429B0112C18372931112F189A
:100270003A29B113DD282F1CDD28AF1CDD28AF1D66
:10028000DD28AF1FDD283210DB28B2102629803090
:10029000B2062C15B214B21B8817B21F8813262978
:1002A000B21B88178914C5213211DD280914C52114
:1002B0003411C8280915C5213212E928A818E328E5
:1002C000A718E3282718E328B112B216E928271C3B
:1002D000E928A81CE928A71CE928A71FE928B212C9
:1002E000E328A0199229B41C9429A01525082606F4
:1002F000031D7D29B1123414C828B41FC228341834
:100300008829211A8429311020188729B113C82877
:10031000211CC828A11CC828A11DC828211DC82827
:100320003410C228B41076298030B406A015B41455
:1003300076290914D0218914D0218817D0210717D4
:10034000D021071388138910D021D021091008006B
:100350000800AA290800AC29AD29AE2908001E30E2
:10036000B5000430B600B50BB629B60BB329B829D1
:10037000000008000430B5000E30B600B50BC129EE
:10038000B60BBE29C329000008003E30B5009D30E1
:10039000B600B50BCC29B60BC929CE290000080040
:1003A0000330B5001830B6000230B700B50BD929BC
:0C03B000B60BDB29B70BD629DD290800AD
:02400E00983FD9
:02401000BC3FB3
:00000001FF
